{
  "contractName": "Exchange",
  "abi": [
    {
      "inputs": [
        {
          "internalType": "address",
          "name": "_feeAccount",
          "type": "address"
        },
        {
          "internalType": "uint256",
          "name": "_feePercent",
          "type": "uint256"
        }
      ],
      "stateMutability": "nonpayable",
      "type": "constructor"
    },
    {
      "anonymous": false,
      "inputs": [
        {
          "indexed": false,
          "internalType": "address",
          "name": "_token",
          "type": "address"
        },
        {
          "indexed": false,
          "internalType": "address",
          "name": "_user",
          "type": "address"
        },
        {
          "indexed": false,
          "internalType": "uint256",
          "name": "_amount",
          "type": "uint256"
        },
        {
          "indexed": false,
          "internalType": "uint256",
          "name": "_balance",
          "type": "uint256"
        }
      ],
      "name": "Deposit",
      "type": "event"
    },
    {
      "anonymous": false,
      "inputs": [
        {
          "indexed": false,
          "internalType": "address",
          "name": "_token",
          "type": "address"
        },
        {
          "indexed": false,
          "internalType": "address",
          "name": "_user",
          "type": "address"
        },
        {
          "indexed": false,
          "internalType": "uint256",
          "name": "_amount",
          "type": "uint256"
        },
        {
          "indexed": false,
          "internalType": "uint256",
          "name": "_balance",
          "type": "uint256"
        }
      ],
      "name": "Withdraw",
      "type": "event"
    },
    {
      "stateMutability": "nonpayable",
      "type": "fallback"
    },
    {
      "inputs": [],
      "name": "feeAccount",
      "outputs": [
        {
          "internalType": "address",
          "name": "",
          "type": "address"
        }
      ],
      "stateMutability": "view",
      "type": "function"
    },
    {
      "inputs": [],
      "name": "feePercent",
      "outputs": [
        {
          "internalType": "uint256",
          "name": "",
          "type": "uint256"
        }
      ],
      "stateMutability": "view",
      "type": "function"
    },
    {
      "inputs": [
        {
          "internalType": "address",
          "name": "",
          "type": "address"
        },
        {
          "internalType": "address",
          "name": "",
          "type": "address"
        }
      ],
      "name": "tokens",
      "outputs": [
        {
          "internalType": "uint256",
          "name": "",
          "type": "uint256"
        }
      ],
      "stateMutability": "view",
      "type": "function"
    },
    {
      "inputs": [
        {
          "internalType": "address",
          "name": "_token",
          "type": "address"
        },
        {
          "internalType": "uint256",
          "name": "_amount",
          "type": "uint256"
        }
      ],
      "name": "depositToken",
      "outputs": [],
      "stateMutability": "nonpayable",
      "type": "function"
    },
    {
      "inputs": [
        {
          "internalType": "address",
          "name": "_token",
          "type": "address"
        },
        {
          "internalType": "uint256",
          "name": "_amount",
          "type": "uint256"
        }
      ],
      "name": "withdrawToken",
      "outputs": [],
      "stateMutability": "nonpayable",
      "type": "function"
    },
    {
      "inputs": [],
      "name": "depositEther",
      "outputs": [],
      "stateMutability": "payable",
      "type": "function"
    },
    {
      "inputs": [
        {
          "internalType": "uint256",
          "name": "_amount",
          "type": "uint256"
        }
      ],
      "name": "withdrawEther",
      "outputs": [],
      "stateMutability": "nonpayable",
      "type": "function"
    },
    {
      "inputs": [
        {
          "internalType": "address",
          "name": "_token",
          "type": "address"
        },
        {
          "internalType": "address",
          "name": "_user",
          "type": "address"
        }
      ],
      "name": "balanceOf",
      "outputs": [
        {
          "internalType": "uint256",
          "name": "",
          "type": "uint256"
        }
      ],
      "stateMutability": "view",
      "type": "function"
    }
  ],
  "bytecode": "0x6080604052604051806060016040528060328152602001620013be603291396003908051906020019062000035929190620000b8565b503480156200004357600080fd5b50604051620013f0380380620013f083398181016040528101906200006991906200020d565b816000806101000a81548173ffffffffffffffffffffffffffffffffffffffff021916908373ffffffffffffffffffffffffffffffffffffffff160217905550806001819055505050620002b8565b828054620000c69062000283565b90600052602060002090601f016020900481019282620000ea576000855562000136565b82601f106200010557805160ff191683800117855562000136565b8280016001018555821562000136579182015b828111156200013557825182559160200191906001019062000118565b5b50905062000145919062000149565b5090565b5b80821115620001645760008160009055506001016200014a565b5090565b600080fd5b600073ffffffffffffffffffffffffffffffffffffffff82169050919050565b60006200019a826200016d565b9050919050565b620001ac816200018d565b8114620001b857600080fd5b50565b600081519050620001cc81620001a1565b92915050565b6000819050919050565b620001e781620001d2565b8114620001f357600080fd5b50565b6000815190506200020781620001dc565b92915050565b6000806040838503121562000227576200022662000168565b5b60006200023785828601620001bb565b92505060206200024a85828601620001f6565b9150509250929050565b7f4e487b7100000000000000000000000000000000000000000000000000000000600052602260045260246000fd5b600060028204905060018216806200029c57607f821691505b602082108103620002b257620002b162000254565b5b50919050565b6110f680620002c86000396000f3fe60806040526004361061007f5760003560e01c80637fd6f15c1161004e5780637fd6f15c1461014c57806398ea5fca146101775780639e281a9814610181578063f7888aec146101aa57610080565b8063338b5dea146100925780633bed33ce146100bb578063508493bc146100e457806365e17c9d1461012157610080565b5b34801561008c57600080fd5b50600080fd5b34801561009e57600080fd5b506100b960048036038101906100b49190610cd4565b6101e7565b005b3480156100c757600080fd5b506100e260048036038101906100dd9190610d14565b610470565b005b3480156100f057600080fd5b5061010b60048036038101906101069190610d41565b6106cb565b6040516101189190610d90565b60405180910390f35b34801561012d57600080fd5b506101366106f0565b6040516101439190610dba565b60405180910390f35b34801561015857600080fd5b50610161610714565b60405161016e9190610d90565b60405180910390f35b61017f61071a565b005b34801561018d57600080fd5b506101a860048036038101906101a39190610cd4565b610869565b005b3480156101b657600080fd5b506101d160048036038101906101cc9190610d41565b610bb4565b6040516101de9190610d90565b60405180910390f35b600073ffffffffffffffffffffffffffffffffffffffff168273ffffffffffffffffffffffffffffffffffffffff16141560039061025b576040517f08c379a00000000000000000000000000000000000000000000000000000000081526004016102529190610edb565b60405180910390fd5b508173ffffffffffffffffffffffffffffffffffffffff166323b872dd3330846040518463ffffffff1660e01b815260040161029993929190610efd565b6020604051808303816000875af11580156102b8573d6000803e3d6000fd5b505050506040513d601f19601f820116820180604052508101906102dc9190610f6c565b60039061031f576040517f08c379a00000000000000000000000000000000000000000000000000000000081526004016103169190610edb565b60405180910390fd5b5080600260008473ffffffffffffffffffffffffffffffffffffffff1673ffffffffffffffffffffffffffffffffffffffff16815260200190815260200160002060003373ffffffffffffffffffffffffffffffffffffffff1673ffffffffffffffffffffffffffffffffffffffff16815260200190815260200160002060008282546103ac9190610fc8565b925050819055507fdcbc1c05240f31ff3ad067ef1ee35ce4997762752e3a095284754544f4c709d7823383600260008773ffffffffffffffffffffffffffffffffffffffff1673ffffffffffffffffffffffffffffffffffffffff16815260200190815260200160002060003373ffffffffffffffffffffffffffffffffffffffff1673ffffffffffffffffffffffffffffffffffffffff16815260200190815260200160002054604051610464949392919061101e565b60405180910390a15050565b600260008073ffffffffffffffffffffffffffffffffffffffff1673ffffffffffffffffffffffffffffffffffffffff16815260200190815260200160002060003373ffffffffffffffffffffffffffffffffffffffff1673ffffffffffffffffffffffffffffffffffffffff16815260200190815260200160002054811115600390610533576040517f08c379a000000000000000000000000000000000000000000000000000000000815260040161052a9190610edb565b60405180910390fd5b5080600260008073ffffffffffffffffffffffffffffffffffffffff1673ffffffffffffffffffffffffffffffffffffffff16815260200190815260200160002060003373ffffffffffffffffffffffffffffffffffffffff1673ffffffffffffffffffffffffffffffffffffffff16815260200190815260200160002060008282546105c09190611063565b925050819055503373ffffffffffffffffffffffffffffffffffffffff166108fc829081150290604051600060405180830381858888f1935050505015801561060d573d6000803e3d6000fd5b507ff341246adaac6f497bc2a656f546ab9e182111d630394f0c57c710a59a2cb56760003383600260008073ffffffffffffffffffffffffffffffffffffffff1673ffffffffffffffffffffffffffffffffffffffff16815260200190815260200160002060003373ffffffffffffffffffffffffffffffffffffffff1673ffffffffffffffffffffffffffffffffffffffff168152602001908152602001600020546040516106c0949392919061101e565b60405180910390a150565b6002602052816000526040600020602052806000526040600020600091509150505481565b60008054906101000a900473ffffffffffffffffffffffffffffffffffffffff1681565b60015481565b34600260008073ffffffffffffffffffffffffffffffffffffffff1673ffffffffffffffffffffffffffffffffffffffff16815260200190815260200160002060003373ffffffffffffffffffffffffffffffffffffffff1673ffffffffffffffffffffffffffffffffffffffff16815260200190815260200160002060008282546107a69190610fc8565b925050819055507fdcbc1c05240f31ff3ad067ef1ee35ce4997762752e3a095284754544f4c709d760003334600260008073ffffffffffffffffffffffffffffffffffffffff1673ffffffffffffffffffffffffffffffffffffffff16815260200190815260200160002060003373ffffffffffffffffffffffffffffffffffffffff1673ffffffffffffffffffffffffffffffffffffffff1681526020019081526020016000205460405161085f949392919061101e565b60405180910390a1565b600073ffffffffffffffffffffffffffffffffffffffff168273ffffffffffffffffffffffffffffffffffffffff1614156003906108dd576040517f08c379a00000000000000000000000000000000000000000000000000000000081526004016108d49190610edb565b60405180910390fd5b50600260008373ffffffffffffffffffffffffffffffffffffffff1673ffffffffffffffffffffffffffffffffffffffff16815260200190815260200160002060003373ffffffffffffffffffffffffffffffffffffffff1673ffffffffffffffffffffffffffffffffffffffff168152602001908152602001600020548111156003906109a1576040517f08c379a00000000000000000000000000000000000000000000000000000000081526004016109989190610edb565b60405180910390fd5b508173ffffffffffffffffffffffffffffffffffffffff1663a9059cbb33836040518363ffffffff1660e01b81526004016109dd929190611097565b6020604051808303816000875af11580156109fc573d6000803e3d6000fd5b505050506040513d601f19601f82011682018060405250810190610a209190610f6c565b600390610a63576040517f08c379a0000000000000000000000000000000000000000000000000000000008152600401610a5a9190610edb565b60405180910390fd5b5080600260008473ffffffffffffffffffffffffffffffffffffffff1673ffffffffffffffffffffffffffffffffffffffff16815260200190815260200160002060003373ffffffffffffffffffffffffffffffffffffffff1673ffffffffffffffffffffffffffffffffffffffff1681526020019081526020016000206000828254610af09190611063565b925050819055507ff341246adaac6f497bc2a656f546ab9e182111d630394f0c57c710a59a2cb567823383600260008773ffffffffffffffffffffffffffffffffffffffff1673ffffffffffffffffffffffffffffffffffffffff16815260200190815260200160002060003373ffffffffffffffffffffffffffffffffffffffff1673ffffffffffffffffffffffffffffffffffffffff16815260200190815260200160002054604051610ba8949392919061101e565b60405180910390a15050565b6000600260008473ffffffffffffffffffffffffffffffffffffffff1673ffffffffffffffffffffffffffffffffffffffff16815260200190815260200160002060008373ffffffffffffffffffffffffffffffffffffffff1673ffffffffffffffffffffffffffffffffffffffff16815260200190815260200160002054905092915050565b600080fd5b600073ffffffffffffffffffffffffffffffffffffffff82169050919050565b6000610c6b82610c40565b9050919050565b610c7b81610c60565b8114610c8657600080fd5b50565b600081359050610c9881610c72565b92915050565b6000819050919050565b610cb181610c9e565b8114610cbc57600080fd5b50565b600081359050610cce81610ca8565b92915050565b60008060408385031215610ceb57610cea610c3b565b5b6000610cf985828601610c89565b9250506020610d0a85828601610cbf565b9150509250929050565b600060208284031215610d2a57610d29610c3b565b5b6000610d3884828501610cbf565b91505092915050565b60008060408385031215610d5857610d57610c3b565b5b6000610d6685828601610c89565b9250506020610d7785828601610c89565b9150509250929050565b610d8a81610c9e565b82525050565b6000602082019050610da56000830184610d81565b92915050565b610db481610c60565b82525050565b6000602082019050610dcf6000830184610dab565b92915050565b7f4e487b7100000000000000000000000000000000000000000000000000000000600052602260045260246000fd5b60006002820490506001821680610e1c57607f821691505b602082108103610e2f57610e2e610dd5565b5b50919050565b600082825260208201905092915050565b60008190508160005260206000209050919050565b60008154610e6881610e04565b610e728186610e35565b94506001821660008114610e8d5760018114610e9f57610ed2565b60ff1983168652602086019350610ed2565b610ea885610e46565b60005b83811015610eca57815481890152600182019150602081019050610eab565b808801955050505b50505092915050565b60006020820190508181036000830152610ef58184610e5b565b905092915050565b6000606082019050610f126000830186610dab565b610f1f6020830185610dab565b610f2c6040830184610d81565b949350505050565b60008115159050919050565b610f4981610f34565b8114610f5457600080fd5b50565b600081519050610f6681610f40565b92915050565b600060208284031215610f8257610f81610c3b565b5b6000610f9084828501610f57565b91505092915050565b7f4e487b7100000000000000000000000000000000000000000000000000000000600052601160045260246000fd5b6000610fd382610c9e565b9150610fde83610c9e565b9250827fffffffffffffffffffffffffffffffffffffffffffffffffffffffffffffffff0382111561101357611012610f99565b5b828201905092915050565b60006080820190506110336000830187610dab565b6110406020830186610dab565b61104d6040830185610d81565b61105a6060830184610d81565b95945050505050565b600061106e82610c9e565b915061107983610c9e565b92508282101561108c5761108b610f99565b5b828203905092915050565b60006040820190506110ac6000830185610dab565b6110b96020830184610d81565b939250505056fea264697066735822122031933666ea72c4a9965ee1d55b83abb28bf358b89b8f4430f26cc24637c60b8f64736f6c634300080d0033564d20457863657074696f6e207768696c652070726f63657373696e67207472616e73616374696f6e3a207265766572742e",
  "immutableReferences": {},
  "source": "// SPDX-License-Identifier: MIT\npragma solidity >=0.4.22 <0.9.0;\n\nimport './Token.sol';\n\ncontract Exchange {\n  // Variables\n  address public feeAccount; // the account that receives exchange fees\n  uint256 public feePercent; // the fee to be charged in each transaction\n  address constant ETHER = address(0); // stores Ether tokens in mapping with blank address\n  mapping(address => mapping(address => uint256)) public tokens;\n\n  // Internal EVM_REVERT string. Necessary to handle unmet require statements.\n  string EVM_REVERT = 'VM Exception while processing transaction: revert.';\n\n  // Events\n  event Deposit(address _token, address _user, uint256 _amount, uint256 _balance);\n  event Withdraw(address _token, address _user, uint256 _amount, uint256 _balance);\n\n  constructor(address _feeAccount, uint256 _feePercent) {\n    feeAccount = _feeAccount;\n    feePercent = _feePercent;\n  }\n\n  // Fallback - revert if Ether send to exchange\n  fallback() external {\n      revert();\n  }\n\n  function depositToken(address _token, uint256 _amount) public {\n    // Don't allow Ether deposits\n    require(_token != ETHER, EVM_REVERT);\n    // Send tokens to this contract\n    require(Token(_token).transferFrom(msg.sender, address(this), _amount), EVM_REVERT);\n    \n    // Manage deposit\n    tokens[_token][msg.sender] += _amount;\n\n    // Emit event\n    emit Deposit(_token, msg.sender, _amount, tokens[_token][msg.sender]);\n  }\n\n  function withdrawToken(address _token, uint256 _amount) public {\n    require(_token != ETHER, EVM_REVERT);\n    require(_amount <= tokens[_token][msg.sender], EVM_REVERT);\n    require(Token(_token).transfer(msg.sender, _amount), EVM_REVERT);\n    tokens[_token][msg.sender] -= _amount;\n    emit Withdraw(_token, msg.sender, _amount, tokens[_token][msg.sender]);\n  }\n\n  function depositEther() payable public {\n    tokens[ETHER][msg.sender] += msg.value;\n    emit Deposit(ETHER, msg.sender, msg.value, tokens[ETHER][msg.sender]);\n  }\n\n  function withdrawEther(uint256 _amount) public {\n    require(_amount <= tokens[ETHER][msg.sender], EVM_REVERT);\n    tokens[ETHER][msg.sender] -= _amount;\n    payable(msg.sender).transfer(_amount);\n    emit Withdraw(ETHER, msg.sender, _amount, tokens[ETHER][msg.sender]);\n  }\n\n  function balanceOf(address _token, address _user) public view returns(uint256) {\n    return tokens[_token][_user];\n  } \n\n}",
  "sourcePath": "/home/fpdo/felipe/projects/blockchain-bootcamp/blockchain-bootcamp/src/contracts/Exchange.sol",
  "compiler": {
    "name": "solc",
    "version": "0.8.13+commit.abaa5c0e.Emscripten.clang"
  },
  "schemaVersion": "3.4.7",
  "updatedAt": "2022-05-30T09:16:00.988Z",
  "networkType": "ethereum",
  "devdoc": {
    "kind": "dev",
    "methods": {},
    "version": 1
  },
  "userdoc": {
    "kind": "user",
    "methods": {},
    "version": 1
  }
}